{
  "contractName": "Lottery",
  "abi": [
    {
      "inputs": [],
      "stateMutability": "nonpayable",
      "type": "constructor"
    },
    {
      "inputs": [],
      "name": "OWNER",
      "outputs": [
        {
          "internalType": "address",
          "name": "",
          "type": "address"
        }
      ],
      "stateMutability": "view",
      "type": "function",
      "constant": true
    },
    {
      "inputs": [
        {
          "internalType": "uint256",
          "name": "",
          "type": "uint256"
        }
      ],
      "name": "lotteryHistory",
      "outputs": [
        {
          "internalType": "address",
          "name": "",
          "type": "address"
        }
      ],
      "stateMutability": "view",
      "type": "function",
      "constant": true
    },
    {
      "inputs": [
        {
          "internalType": "uint256",
          "name": "",
          "type": "uint256"
        }
      ],
      "name": "players",
      "outputs": [
        {
          "internalType": "address",
          "name": "",
          "type": "address"
        }
      ],
      "stateMutability": "view",
      "type": "function",
      "constant": true
    },
    {
      "inputs": [],
      "name": "enter",
      "outputs": [],
      "stateMutability": "payable",
      "type": "function",
      "payable": true
    },
    {
      "inputs": [],
      "name": "getPlayers",
      "outputs": [
        {
          "internalType": "address[]",
          "name": "",
          "type": "address[]"
        }
      ],
      "stateMutability": "view",
      "type": "function",
      "constant": true
    },
    {
      "inputs": [],
      "name": "balance",
      "outputs": [
        {
          "internalType": "uint256",
          "name": "",
          "type": "uint256"
        }
      ],
      "stateMutability": "view",
      "type": "function",
      "constant": true
    },
    {
      "inputs": [
        {
          "internalType": "uint256",
          "name": "lottery",
          "type": "uint256"
        }
      ],
      "name": "getLastWinnerByLottery",
      "outputs": [
        {
          "internalType": "address",
          "name": "",
          "type": "address"
        }
      ],
      "stateMutability": "view",
      "type": "function",
      "constant": true
    },
    {
      "inputs": [],
      "name": "pickWinner",
      "outputs": [
        {
          "internalType": "address payable",
          "name": "",
          "type": "address"
        }
      ],
      "stateMutability": "nonpayable",
      "type": "function"
    }
  ],
  "bytecode": "0x60a060405234801561001057600080fd5b5033606081901b6080526107286100406000396000818161018b015281816101b1015261026a01526107286000f3fe60806040526004361061007b5760003560e01c80638b5b9ccc1161004e5780638b5b9ccc14610100578063b69ef8a814610122578063e97dcb6214610144578063f71d96cb1461014e5761007b565b806305b5aaeb14610080578063117803e3146100b65780635d495aea146100cb5780636d6fe230146100e0575b600080fd5b34801561008c57600080fd5b506100a061009b366004610551565b61016e565b6040516100ad91906105ba565b60405180910390f35b3480156100c257600080fd5b506100a0610189565b3480156100d757600080fd5b506100a06101ad565b3480156100ec57600080fd5b506100a06100fb366004610551565b61038a565b34801561010c57600080fd5b506101156103a5565b6040516100ad91906105ce565b34801561012e57600080fd5b50610137610407565b6040516100ad9190610687565b61014c61040b565b005b34801561015a57600080fd5b506100a0610169366004610551565b610473565b6000908152600260205260409020546001600160a01b031690565b7f000000000000000000000000000000000000000000000000000000000000000081565b60007f00000000000000000000000000000000000000000000000000000000000000006001600160a01b031633146102005760405162461bcd60e51b81526004016101f790610663565b60405180910390fd5b6702c68af0bb14000047101561021557600080fd5b6000805461022161049d565b61022b91906106c8565b9050600080828154811061024f57634e487b7160e01b600052603260045260246000fd5b6000918252602090912001546001600160a01b0390811691507f00000000000000000000000000000000000000000000000000000000000000009081166108fc61029a6014476106b4565b6040518115909202916000818181858888f193505050501580156102c2573d6000803e3d6000fd5b506040516001600160a01b038316904780156108fc02916000818181858888f193505050501580156102f8573d6000803e3d6000fd5b506000838154811061031a57634e487b7160e01b600052603260045260246000fd5b60009182526020808320909101546001805484526002909252604090922080546001600160a01b0319166001600160a01b0390931692909217909155805461036191610690565b6001556040805160008082526020820192839052905161038192906104d7565b50909250505090565b6002602052600090815260409020546001600160a01b031681565b606060008054806020026020016040519081016040528092919081815260200182805480156103fd57602002820191906000526020600020905b81546001600160a01b031681526001909101906020018083116103df575b5050505050905090565b4790565b3467016345785d8a0000146104325760405162461bcd60e51b81526004016101f79061061b565b600080546001810182559080527f290decd9548b62a8d60345a988386fc84ba6bc95484008f6362f93160ef3e5630180546001600160a01b03191633179055565b6000818154811061048357600080fd5b6000918252602090912001546001600160a01b0316905081565b6000424460006001546040516020016104b99493929190610569565b6040516020818303038152906040528051906020012060001c905090565b82805482825590600052602060002090810192821561052c579160200282015b8281111561052c57825182546001600160a01b0319166001600160a01b039091161782556020909201916001909101906104f7565b5061053892915061053c565b5090565b5b80821115610538576000815560010161053d565b600060208284031215610562578081fd5b5035919050565b600085825260208581840152604083018554868452828420845b828110156105a85781546001600160a01b031684529284019260019182019101610583565b50505093845290920195945050505050565b6001600160a01b0391909116815260200190565b6020808252825182820181905260009190848201906040850190845b8181101561060f5783516001600160a01b0316835292840192918401916001016105ea565b50909695505050505050565b60208082526028908201527f596f75206d75737420706179206174206c6561737420302e3120626e622070656040820152671c881d1a58dad95d60c21b606082015260800190565b6020808252600a908201526927b7363c9027bbb732b960b11b604082015260600190565b90815260200190565b600082198211156106af57634e487b7160e01b81526011600452602481fd5b500190565b6000826106c3576106c36106dc565b500490565b6000826106d7576106d76106dc565b500690565b634e487b7160e01b600052601260045260246000fdfea26469706673582212208aa400717b4868a161b9dd1c662c9bcb241bec333adbf6f9f4e1d0276d75267564736f6c63430008010033",
  "immutableReferences": {
    "44": [
      {
        "length": 32,
        "start": 395
      },
      {
        "length": 32,
        "start": 433
      },
      {
        "length": 32,
        "start": 618
      }
    ]
  },
  "source": "// SPDX-License-Identifier: MIT\n\npragma solidity ^0.8.1;\n\ncontract Lottery {\n    \n    address public immutable OWNER;\n    \n    address[] public players;\n\n    uint private counter; \n\n    mapping (uint => address ) public lotteryHistory;\n    \n\n    constructor() {\n        OWNER = msg.sender;\n    }\n\n    modifier onlyOwner{\n        require(OWNER == msg.sender, \"Only Owner\");\n        _;\n    }\n\n    function enter() public payable {\n        require(msg.value == 0.1 ether, \"You must pay at least 0.1 bnb per ticket\");\n        players.push(msg.sender);\n\n    }\n\n    function getPlayers() public view returns (address[] memory) {\n        return players;\n    }\n\n    function balance() public view returns(uint256){\n        return address(this).balance;\n    }\n\n    function getLastWinnerByLottery(uint lottery) public view returns (address) {\n        return lotteryHistory[lottery];\n    }\n\n    function random() private view returns (uint256) {\n        return \n            uint256(\n                keccak256(\n                    abi.encodePacked(\n                        block.timestamp, \n                        block.difficulty, \n                        players, \n                        counter \n                    )\n                )\n            );\n    }\n\n    function pickWinner() public onlyOwner returns(address payable){\n        require(address(this).balance >= 0.2 * 1e18);\n        uint index = random() % players.length;\n\n        address payable winner = payable (players[index]);\n        address payable donation = payable (OWNER);\n\n        donation.transfer(address(this).balance / 20);  // 5% of amount lottery\n        \n        winner.transfer(address(this).balance);\n        \n        lotteryHistory[counter] = players[index];\n\n        counter = counter + 1;\n\n        players = new address[](0);\n\n        return winner;\n    } \n\n}",
  "sourcePath": "/Users/macm1/Desktop/WWW/smart_contract_lottery/contracts/Lottery.sol",
  "compiler": {
    "name": "solc",
    "version": "0.8.1+commit.df193b15.Emscripten.clang"
  },
  "schemaVersion": "3.4.7",
  "updatedAt": "2022-07-01T02:23:29.102Z",
  "networkType": "ethereum",
  "devdoc": {
    "kind": "dev",
    "methods": {},
    "version": 1
  },
  "userdoc": {
    "kind": "user",
    "methods": {},
    "version": 1
  }
}