{
  "contractName": "Lottery",
  "abi": [
    {
      "inputs": [],
      "stateMutability": "nonpayable",
      "type": "constructor"
    },
    {
      "inputs": [],
      "name": "OWNER",
      "outputs": [
        {
          "internalType": "address",
          "name": "",
          "type": "address"
        }
      ],
      "stateMutability": "view",
      "type": "function",
      "constant": true
    },
    {
      "inputs": [
        {
          "internalType": "uint256",
          "name": "",
          "type": "uint256"
        }
      ],
      "name": "lotteryHistory",
      "outputs": [
        {
          "internalType": "address",
          "name": "",
          "type": "address"
        }
      ],
      "stateMutability": "view",
      "type": "function",
      "constant": true
    },
    {
      "inputs": [],
      "name": "lotteryId",
      "outputs": [
        {
          "internalType": "uint256",
          "name": "",
          "type": "uint256"
        }
      ],
      "stateMutability": "view",
      "type": "function",
      "constant": true
    },
    {
      "inputs": [
        {
          "internalType": "uint256",
          "name": "",
          "type": "uint256"
        }
      ],
      "name": "players",
      "outputs": [
        {
          "internalType": "address",
          "name": "",
          "type": "address"
        }
      ],
      "stateMutability": "view",
      "type": "function",
      "constant": true
    },
    {
      "inputs": [],
      "name": "enter",
      "outputs": [],
      "stateMutability": "payable",
      "type": "function",
      "payable": true
    },
    {
      "inputs": [],
      "name": "getPlayers",
      "outputs": [
        {
          "internalType": "address[]",
          "name": "",
          "type": "address[]"
        }
      ],
      "stateMutability": "view",
      "type": "function",
      "constant": true
    },
    {
      "inputs": [],
      "name": "getLotteryId",
      "outputs": [
        {
          "internalType": "uint256",
          "name": "",
          "type": "uint256"
        }
      ],
      "stateMutability": "view",
      "type": "function",
      "constant": true
    },
    {
      "inputs": [],
      "name": "balance",
      "outputs": [
        {
          "internalType": "uint256",
          "name": "",
          "type": "uint256"
        }
      ],
      "stateMutability": "view",
      "type": "function",
      "constant": true
    },
    {
      "inputs": [
        {
          "internalType": "uint256",
          "name": "lottery",
          "type": "uint256"
        }
      ],
      "name": "getLastWinnerByLottery",
      "outputs": [
        {
          "internalType": "address",
          "name": "",
          "type": "address"
        }
      ],
      "stateMutability": "view",
      "type": "function",
      "constant": true
    },
    {
      "inputs": [],
      "name": "pickWinner",
      "outputs": [
        {
          "internalType": "address payable",
          "name": "",
          "type": "address"
        }
      ],
      "stateMutability": "nonpayable",
      "type": "function"
    }
  ],
  "bytecode": "0x60a060405234801561001057600080fd5b5033606081901b60805260016002556107ae610045600039600081816101cb015281816101f101526102aa01526107ae6000f3fe6080604052600436106100915760003560e01c8063900aafaf11610059578063900aafaf14610138578063b69ef8a81461015a578063e580f47b1461016f578063e97dcb6214610184578063f71d96cb1461018e57610091565b806305b5aaeb14610096578063117803e3146100cc5780635d495aea146100e15780636d6fe230146100f65780638b5b9ccc14610116575b600080fd5b3480156100a257600080fd5b506100b66100b13660046105b2565b6101ae565b6040516100c3919061061b565b60405180910390f35b3480156100d857600080fd5b506100b66101c9565b3480156100ed57600080fd5b506100b66101ed565b34801561010257600080fd5b506100b66101113660046105b2565b6103df565b34801561012257600080fd5b5061012b6103fa565b6040516100c3919061062f565b34801561014457600080fd5b5061014d61045c565b6040516100c391906106e8565b34801561016657600080fd5b5061014d610462565b34801561017b57600080fd5b5061014d610466565b61018c61046c565b005b34801561019a57600080fd5b506100b66101a93660046105b2565b6104d4565b6000908152600360205260409020546001600160a01b031690565b7f000000000000000000000000000000000000000000000000000000000000000081565b60007f00000000000000000000000000000000000000000000000000000000000000006001600160a01b031633146102405760405162461bcd60e51b8152600401610237906106c4565b60405180910390fd5b6702c68af0bb14000047101561025557600080fd5b600080546102616104fe565b61026b9190610738565b9050600080828154811061028f57634e487b7160e01b600052603260045260246000fd5b6000918252602090912001546001600160a01b0390811691507f00000000000000000000000000000000000000000000000000000000000000009081166108fc6102da601447610709565b6040518115909202916000818181858888f19350505050158015610302573d6000803e3d6000fd5b506040516001600160a01b038316904780156108fc02916000818181858888f19350505050158015610338573d6000803e3d6000fd5b506000838154811061035a57634e487b7160e01b600052603260045260246000fd5b600091825260208083209091015460025483526003909152604090912080546001600160a01b0319166001600160a01b03909216919091179055600180546103a1916106f1565b600155600280549060006103b48361071d565b9091555050604080516000808252602082019283905290516103d69290610538565b50909250505090565b6003602052600090815260409020546001600160a01b031681565b6060600080548060200260200160405190810160405280929190818152602001828054801561045257602002820191906000526020600020905b81546001600160a01b03168152600190910190602001808311610434575b5050505050905090565b60025490565b4790565b60025481565b3467016345785d8a0000146104935760405162461bcd60e51b81526004016102379061067c565b600080546001810182559080527f290decd9548b62a8d60345a988386fc84ba6bc95484008f6362f93160ef3e5630180546001600160a01b03191633179055565b600081815481106104e457600080fd5b6000918252602090912001546001600160a01b0316905081565b60004244600060015460405160200161051a94939291906105ca565b6040516020818303038152906040528051906020012060001c905090565b82805482825590600052602060002090810192821561058d579160200282015b8281111561058d57825182546001600160a01b0319166001600160a01b03909116178255602090920191600190910190610558565b5061059992915061059d565b5090565b5b80821115610599576000815560010161059e565b6000602082840312156105c3578081fd5b5035919050565b600085825260208581840152604083018554868452828420845b828110156106095781546001600160a01b0316845292840192600191820191016105e4565b50505093845290920195945050505050565b6001600160a01b0391909116815260200190565b6020808252825182820181905260009190848201906040850190845b818110156106705783516001600160a01b03168352928401929184019160010161064b565b50909695505050505050565b60208082526028908201527f596f75206d75737420706179206174206c6561737420302e3120626e622070656040820152671c881d1a58dad95d60c21b606082015260800190565b6020808252600a908201526927b7363c9027bbb732b960b11b604082015260600190565b90815260200190565b600082198211156107045761070461074c565b500190565b60008261071857610718610762565b500490565b60006000198214156107315761073161074c565b5060010190565b60008261074757610747610762565b500690565b634e487b7160e01b600052601160045260246000fd5b634e487b7160e01b600052601260045260246000fdfea264697066735822122028d561d2412bfdf90a6dcf06b323adf89fded594760837ff9f6765ad6748dc6d64736f6c63430008010033",
  "immutableReferences": {
    "44": [
      {
        "length": 32,
        "start": 459
      },
      {
        "length": 32,
        "start": 497
      },
      {
        "length": 32,
        "start": 682
      }
    ]
  },
  "source": "// SPDX-License-Identifier: MIT\n\npragma solidity ^0.8.1;\n\ncontract Lottery {\n    \n    address public immutable OWNER;\n    \n    address[] public players;\n\n    uint private counter; \n\n    uint public lotteryId;\n  \n    mapping (uint => address ) public lotteryHistory;\n    \n    constructor() {\n        OWNER = msg.sender;\n        lotteryId = 1;\n    }\n\n    modifier onlyOwner{\n        require(OWNER == msg.sender, \"Only Owner\");\n        _;\n    }\n\n    function enter() public payable {\n        require(msg.value == 0.1 ether, \"You must pay at least 0.1 bnb per ticket\");\n        players.push(msg.sender);\n\n    }\n\n    function getPlayers() public view returns (address[] memory) {\n        return players;\n    }\n    \n    function getLotteryId() public view returns (uint256) {\n        return lotteryId;\n    }\n\n    function balance() public view returns(uint256){\n        return address(this).balance;\n    }\n\n    function getLastWinnerByLottery(uint lottery) public view returns (address) {\n        return lotteryHistory[lottery];\n    }\n\n    function random() private view returns (uint256) {\n        return \n            uint256(\n                keccak256(\n                    abi.encodePacked(\n                        block.timestamp, \n                        block.difficulty, \n                        players, \n                        counter \n                    )\n                )\n            );\n    }\n\n    function pickWinner() public onlyOwner returns(address payable){\n        require(address(this).balance >= 0.2 * 1e18);\n        uint index = random() % players.length;\n\n        address payable winner = payable (players[index]);\n        address payable donation = payable (OWNER);\n\n        donation.transfer(address(this).balance / 20);  // 5% of amount lottery\n        \n        winner.transfer(address(this).balance);\n        \n        lotteryHistory[lotteryId] = players[index];\n\n        counter = counter + 1;\n        lotteryId++;\n        \n        players = new address[](0);\n\n        return winner;\n    } \n\n}",
  "sourcePath": "/Users/macm1/Desktop/WWW/smart_contract_lottery/contracts/Lottery.sol",
  "compiler": {
    "name": "solc",
    "version": "0.8.1+commit.df193b15.Emscripten.clang"
  },
  "schemaVersion": "3.4.7",
  "updatedAt": "2022-07-14T21:15:36.205Z",
  "networkType": "ethereum",
  "devdoc": {
    "kind": "dev",
    "methods": {},
    "version": 1
  },
  "userdoc": {
    "kind": "user",
    "methods": {},
    "version": 1
  }
}